:100000000C94D90E0C94010F0C94010F0C94010F59
:100010000C94010F0C94010F0C94010F0C94010F20
:100020000C94010F0C94010F0C94681B0C94D71BBB
:100030000C94010F0C94010F0C94010F0C94010F00
:100040000C94010F0C94010F0C94010F0C94010FF0
:100050000C94010F0C94010F0C94010F0C94091EC9
:100060000C94010F0C94010F0C94010F0C94010FD0
:100070000C94010F0C94010F0C94010F0C94010FC0
:100080000C94010F0C94010F0C94010F0C94010FB0
:100090000C94010F0C94010F0C94010F0C94010FA0
:1000A0000C94010F0C94010F0C94010F4341505418
:1000B0005552453A2041545441434B455200434127
:1000C00050545552453A2053414D450043415054F8
:1000D0005552453A2046414C4C454E20414345003F
:1000E000434150545552453A204E4F524D414C00D9
:1000F0005649534942494C4954593A20544852456B
:1001000045005649534942494C4954593A204F50A9
:10011000454E005649534942494C4954593A2048A2
:10012000494444454E0053455455503A2052455099
:100130004C4143450053455455503A205357415084
:100140000053455455503A204E4F4E4500504C41B7
:10015000593A2052414E444F4D00504C41593A209B
:100160004F5244455200504C41593A2043484F4F5A
:100170005345005041594F55543A2034580050418E
:10018000594F55543A203358005041594F55543A1D
:10019000203258005041594F55543A203158005799
:1001A000494E3A20484947484553540057494E3A2A
:1001B000204C4F574553540057494E3A2052414E18
:1001C000444F4D00454E444552204F4620414C4C33
:1001D000205448494E475300444F4D494E555320F3
:1001E00041204445585452495320545549532043C3
:1001F0004F4E46524547495420494E2044494520D8
:1002000049524145205355414520524547455300E9
:1002100053414E4755495320424542494D55530A93
:10022000434F52505553204544494D55530A544F5E
:100230004C4C4520434F5250555320534154414E4E
:10024000490A41564520564552535553204348527A
:1002500049535455530A41564520534154414E4940
:100260000043524F434F44594C555320504F4E5426
:1002700049464558002249204C4F564520474F4F8C
:100280004F4F4C442200544845204D455353454E52
:100290004745522C20474F44204F4620544845495B
:1002A0005645530041494D5320544F20434F4D5024
:1002B000524553532054494D45004E4F204D454E15
:1002C00054414C20504F574552530048554E5453BB
:1002D00020544845204D4F53542044414E474552E9
:1002E0004F55532047414D450057415443482059ED
:1002F0004F5552204241434B0054484520534352EE
:1003000045454348494E47204953204120444541F3
:1003100054484C59204F4D454E20464F522054488A
:100320004F53452057484F204845415253005448A9
:100330004953204F4E45204B494C4C45442054488E
:10034000452044494E4F5341555253004D4F544858
:100350004552204F462043455242455255532C208A
:100360004348494D4552412C20414E442054484574
:1003700020535048494E5800444F4553204E4F5447
:10038000204C4F56450041204C4F56455220414E7F
:10039000442041204649474854455200464F524563
:1003A000535457414C4B0A0A202020202020202063
:1003B000202020202020312F3100484953204D4F4C
:1003C00054484552204E414D45442048494D205304
:1003D0005441424259204D634745450049545320FA
:1003E0004D4F535420504F57455246554C20504185
:1003F000525420495320544845204E4F5345004401
:100400004553504954452049545320534D414C4C79
:100410002053495A452C2043414E205354494C4CBB
:1004200020425245415448204649524500495420F3
:1004300043414D452046524F4D204F555445522083
:100440005350414345003230203230203230205664
:100450004953494F4E0048554E54494E4720524546
:1004600044204F43544F42455200495453204F4E6D
:100470004C59205745414B4E455353204953204139
:10048000204641524D455220414E44204849532078
:1004900054524143544F52004C4F56455320544FF1
:1004A000204749564520485547532C20444F204E5D
:1004B0004F54205245434950524F43415445004602
:1004C000554E4E5920484F573F204C494B452041EF
:1004D00020434C4F574E0054484520534F555243EC
:1004E00045204F46204C554E4143590052455649F0
:1004F0005645442046524F4D20414D4245522054CE
:100500004F2052554C4520544845204C414E4420E4
:10051000414741494E004249505049545920424FA9
:10052000505049545920424F4F004E455645522095
:10053000464F52474554532E2E2E20544F204B49A0
:100540004C4C00544845204E45434B20424F4E45AD
:10055000275320434F4E4E454354454420544F208B
:10056000544845205348494E20424F4E452E2E2E8A
:10057000004C4F4F4B20464F522054484520424597
:100580004152204E45434553534954494553004435
:1005900049444E275420534B4950204C4547204452
:1005A000415900484541442D42414E47494E47205C
:1005B0004849532057415920544F20564943544FDE
:1005C000525900535353535353535353535353009C
:1005D0005353535300594F555220555355414C20B6
:1005E000424F5720414E44204152524F5720544FC2
:1005F00054274E2C20504F494E54592045415220EB
:1006000043484150004241534943414C4C592041D9
:100610004C4C204D5553434C4500495453204F4EAC
:100620004C592044414E4745524F5553204946208E
:10063000594F5520474F20494E20544845204F439D
:1006400045414E0053454C462D464C4147454C4C88
:100650004154455320464F522046554E20414E446A
:100660002050524F504845540043414E4E4F4E206B
:10067000464F444445520052494E47494E47205444
:1006800048452042454C4C20574153204A5553542D
:100690002057454947485420545241494E494E47F6
:1006A0000054414B454E20464F5220554E49434F32
:1006B000524E5320494E20414E54495155495459A8
:1006C000004B57454545454848482100544845207A
:1006D0004F4E4C5920504552534F4E2041424C45AD
:1006E00020544F205354414E4420555020544845E7
:1006F00020544845204B494E4700444F4E27542034
:1007000041434345505420484552204652454520D8
:100710004150504C455300414C574159532052458C
:1007200041445920544F20504F554E4345005448A2
:1007300045204D4F53542043554E4E494E47204F70
:10074000462054484520574849544520414E494D7C
:10075000414C53004F4E434520495420534E494687
:1007600046532049545320505245592C2054484553
:10077000592043414E27542052554E00474F455370
:100780002042554D5020494E20544845204E49475F
:100790004854004E4F542041205245414C5920426C
:1007A0004F5900414E434553544F5220544F20411E
:1007B0004C4C20434154544C452C20544845204D2A
:1007C000414320444144445900454E524147454429
:1007D0002C2049542043414E2043414C4C2055503D
:1007E0004F4E205448452057484F4C4520484956C5
:1007F0004500492044554E4E4F2C20495420534526
:100800004C462D5249474854454F5553455320595E
:100810004F5520544F2044454154483F0041204407
:10082000454C494341435920494E204D414E5920A2
:1008300043554C545552455300495453204F4E454F
:100840002054414354494320495320544F2043529C
:1008500055534800494D4147494E4520474554545A
:10086000494E4720494D50414C4544204259204F64
:100870004E45204F462054484F53450044414E4773
:1008800045524F55534C5920454E44414E474552D1
:1008900045440048455921204C495354454E210AAE
:1008A00048455921204C495354454E210A48455941
:1008B00021204C495354454E2100494E2046414386
:1008C00054204E4F542042414C4C4552494E4153C6
:1008D00000464F5220414C4C20594F55204B4E4F13
:1008E000572049545320484F4C44494E4720504FBD
:1008F00049534F4E004355544520504F494E54598B
:1009000020454152532C2057494C4C2042495445D4
:10091000004954532044454146454E494E472053D3
:100920004852494C4C2043414E20434155534520A9
:1009300054494E4E4954555320415420574F525319
:100940005400495453204D4552452045584953546D
:10095000454E4345205441554E545320495453204D
:10096000454E454D494553004920444F4E2754209C
:1009700048415445204348494D50414E2D41204166
:1009800053204D554348004D6F6F6F4F4F4F6F6F62
:100990006F0054484520574F4D414E205448415414
:1009A00020492049444F4C495A452C204F5220544D
:1009B00048452048414E4453204F4620414E204157
:1009C00055544F4D41544F4E3F00544845204D45DE
:1009D0004D424552204F4620434C455247592C200A
:1009E0004E4F54205448452042495244004120541F
:1009F000484F5553414E4420504150455220435595
:100A0000545300415445204D59204241425900441D
:100A1000494420594F55204B4E4F573A20412047CB
:100A2000524F5550204F462056554C545552455321
:100A30002049532043414C4C4544204120225741FA
:100A40004B45220044494E4720444F4E472C2054EA
:100A50004845495220454E454D4945532041524550
:100A6000204445414400504C415946554C2C2042AD
:100A7000555420444F4E2754204745542043415558
:100A8000474854204F464620475541524400412094
:100A9000475245415420534F55524345204F46201D
:100AA00043414C414D41524900534F4F4E20495410
:100AB000274C4C2042452041424C4520544F205762
:100AC0004144444C4520544F574152445320594FC0
:100AD00055004E4F542055474C5900534F20434F1B
:100AE0004D464F525441424C452C20594F55274CAE
:100AF0004C204245205452415050454420464F52CC
:100B00004556455200594F2051554945524F2044B2
:100B100045564F52415220545520414C4D410044BE
:100B2000414E4745524F5553204245464F5245206E
:100B3000535052494E4700495453204E4154555248
:100B4000414C2048414249544154204953204F4E82
:100B5000205448452053484F554C444552204F4659
:100B600020412044554445205749544820412047BE
:100B70004F41544545004146544552204120574875
:100B8000494C452C205448452053504C415348492A
:100B90004E47204745545320414E4E4F59494E47EA
:100BA00000495453205354494E4753204152452045
:100BB000414D4F4E4720544845204D4F53542050EF
:100BC00041494E46554C20455850455249414E43A7
:100BD0004553204F4E452043414E20454E445552EB
:100BE0004500495427532043524545505920484F0A
:100BF00057205448455920434F4E5354414E544C6E
:100C0000592046414345205448452053554E0053F2
:100C10004F4F4E204954274C4C2042452041424CD6
:100C20004520544F20435241574C20544F57415276
:100C3000445320594F55002E2E2E454C4C412C200C
:100C4000454C4C412C20454C4C412C2045482C20F7
:100C500045482C204548004D454E4143494E474CA0
:100C600059204C49434B494E472049545320504149
:100C700057530046554C4C204F4620564954414D41
:100C8000494E5320494620495420444F45534E274E
:100C9000542045415420594F552046495253540041
:100CA00054454143482041204D414E20544F204659
:100CB0004953482C2046454544205448454D20463C
:100CC0004F522041204441592E2054454143482051
:100CD00041204649534820544F20464953482E2E20
:100CE0002E2057454C4C00534C4F5720414E44202A
:100CF00053544541445920534C415547485445525B
:100D0000532049545320464F4553004B45455020EE
:100D1000415741592046524F4D2053414C540053A6
:100D200054494E47532C20444F45534E2754204698
:100D30004C4F4154004855525453205748454E207B
:100D400044524F505045442046524F4D20414E5939
:100D5000204845494748540054484520504F4C4C82
:100D6000454E20434155534553204D4F5245205445
:100D700048414E204A55535420414C4C4552474916
:100D80004553004D414445204F46205741582C20A3
:100D9000444F204E4F542045415400424541555444
:100DA0004946554C2046524F4D204120444953540A
:100DB000414E43452C20414C534F20555020434C2D
:100DC0004F5345004A4947474C5920414E44205310
:100DD00049434B4C5920535745455400444F4553C4
:100DE0004E27542041435455414C4C59204C4956B0
:100DF0004520494E204120544541504F5400464C17
:100E00004F4154532C20444F45534E2754205354A4
:100E1000494E47004E4F204645524F43494F555388
:100E20002054454554482C204E4F4E4520415420D7
:100E3000414C4C00534C494748544C592054414371
:100E40004B592C205553454C455353204153204179
:100E50004E20414448455349564500544845204298
:100E6000524947485420524544204F4E4553204153
:100E7000524520504F49534F4E4F55532C20544804
:100E80004953204F4E4520495320475245454E0077
:100E90004E415354592C2042495445592C20414E1F
:100EA0004E4F59494E4720494E204C41524745200C
:100EB0004E554D4245525300464C41564F52004408
:100EC0006561746800417A7261656C004265656CA9
:100ED0007A656275620054686520506F7065004BDA
:100EE000696E67204D69646173004D657263757248
:100EF0007900536F726365726573730050726F6629
:100F00006573736F720048756E74736D616E004126
:100F10007373617373696E0042616E736865650017
:100F200041737465726F69640045636869646E61DA
:100F300000526F626F7400507567696C697374005A
:100F400044727961640046656E636572005370682F
:100F5000796E7800447261676F6E657400416C69E8
:100F6000656E00547269636C6F7073005375626DC7
:100F70006172696E650050616E7A657200466972D1
:100F800065205370726974650047616E677374659C
:100F900072004D6F6F6E20537069726974004469FE
:100FA0006E6F7361757200466169727900456C6598
:100FB0007068616E7400536B656C65746F6E00557C
:100FC0007273696E65004C6567204D6F6E73746552
:100FD00072004D6F6861776B00426C61636B2053E8
:100FE0006E616B6500576869746520536E616B654F
:100FF000004C6967687420456C6600476F72696CC5
:101000006C61004B696C6C6572205768616C65009F
:101010004173636574696300536F6C646965720042
:1010200048756E63686261636B005268696E6F63D6
:1010300065726F730043686F636F626F00436F7513
:101040007274204A6573746572004F6C6420486145
:101050006700426F62636174004172746963204685
:101060006F7800426C6F6F64486F756E64004170FA
:101070007061726974696F6E00416E64726F696449
:10108000004175726F636800486F726E657400434B
:1010900079636C6973740053636F7270696F6E006B
:1010A000526F636B204D6F6E737465720057616C85
:1010B000727573004769616E742050616E646100DF
:1010C000506978696500486970706F706F74616D00
:1010D000757300446577617220466C61736B004ADA
:1010E00061636B616C0053637265616D696E67204B
:1010F000486561640047726176652053746F6E6560
:10110000004368696D70616E7A656500436F7700B2
:101110004175746F6D61746F6E0043617264696EC6
:10112000616C00426F6F6B204D6F6E73746572005F
:1011300044696E676F0056756C7475726500426520
:101140006C6C204D6F6E73746572005075707079A1
:10115000004769616E742053717569640048756D4C
:10116000616E20546F64646C6572004475636B6CCF
:10117000696E6700436861697200436869687561F8
:1011800068756100536E6F776D616E0049677561B8
:101190006E610057617465722053707269746500E6
:1011A0004D616E2D6F2D5761720053756E20466C28
:1011B0006F7765720048756D616E204261627900DB
:1011C000556D6272656C6C61004B69747479204373
:1011D0006174005370726F757400416E676C657254
:1011E000204669736800546F72746F6973650053A9
:1011F0006E61696C0042756D626C652042656500C8
:10120000427269636B0044616E64656C696F6E0065
:101210004170706C650057696C6C206F27205769AE
:10122000737000536C696D6500446F726D6F7573F8
:101230006500427574746572666C790042756E6EF5
:10124000792052616262697400476F6F204D6F6E42
:1012500073746572004D757368726F6F6D004669C7
:10126000726520416E74004D697373696E67204E1C
:101270006F00D5F08D14A1C881CFD9F1AF20007FC8
:10128000415D5D5D417F006A0F740EFAA6730A5ED0
:101290002A48B4C7007F415D5D5D417FE3D19B0972
:1012A000154E5573179FE98865D575319B448ACED5
:1012B000B33B989F9A6F44E3C8DE41555C4053D5D9
:1012C000157E2BC3E85484F577CE5D096EFB185864
:1012D0001BFA56D4B88E1F10171717101F001F06C1
:1012E000140E050517170F1513141B1F15071118DA
:1012F0001D0509B801AC019F010000940189017E20
:1013000001730166015A014D0100004101350126BA
:1013100001000013010201F0000000E000CC00BE5B
:1013200000AC00B80E900E5B0E340E140EFE0DDCF9
:101330000DC40D9B0D830D580D350D1F0D0B0DE7C5
:101340000CA00C730C570C370C0F0CE20BA10B7696
:101350000B370B1F0B050BDB0AD20AA90A8E0A6694
:101360000A440A0F0A030AED09CA099209870968A3
:101370000942091109F508D108BA0893087C0854F4
:101380000839081D08F207C907A30793077C07540B
:10139000072E071707FA06CC06C106A106770669CD
:1013A0000644061A060506D505D005C305A3058F14
:1013B00005710543052A051605EC04D704BF0498FA
:1013C000046A04560446042D04FF03DC03BA039C9C
:1013D00003860378034C032E03F902E902CB02BA19
:1013E00002A4028602750261021002D801C40167DC
:1013F000125E12551249123C123212291223121691
:1014000012101206120012F511EF11E611DA11D3C3
:1014100011C911C011B511AA11A01193118C118419
:10142000117A1174116B115D1151114B113E11366E
:1014300011301123111A1110110C110111F510E6C0
:1014400010DF10D310C610C010B410AD10A010974C
:10145000108F108810811079106E1063105910527F
:10146000104A103D1035102A1020101810101003CB
:1014700010FB0FF10FE50FD90FD20FC60FBF0FB63C
:101480000FAD0FA70F9E0F920F890F7D0F760F6C78
:101490000F630F5D0F540F4D0F460F400F370F3185
:1014A0000F290F200F180F0F0F060FFC0EF20EEA78
:1014B0000EDF0ED60ECC0EC50EBF0E0701010704BF
:1014C0000407060C181818181C0C06030000070F58
:1014D000040002070F0400070F044067EFC4827F77
:1014E0003F0002070F040003070E0C040200000077
:1014F000000003070F1C1A1918180C060002070F2A
:101500000400070F0400070F0400070F040003077F
:101510000E0C04020000070F0402070F0400070F5F
:10152000040203013C66C3C3E377363662C1001090
:10153000FBF3200010F8F02010F8F00000E0F008B5
:1015400018F8F02002FFFE0000E0F00818B8702044
:1015500000000000F8FE0F03F1FB47E672210010C7
:10156000F8F02010F8F00010F8F02010F8F000006B
:10157000E0F00818B8702000E0F00818F8F020003B
:10158000E3F60C1CF8F000010210111213202122C6
:10159000303132404142505153080B0002020200E8
:1015A00000090400000102020000052400100105EA
:1015B0002401010104240206052406000107058117
:1015C0000310004009040100020A000000070502A0
:1015D00002400000070583024000000403090412D2
:1015E000010002EF020140412336800001010203A5
:1015F0000141726475696E6F204C4C430041726406
:1016000075696E6F204C656F6E6172646F00FF00CC
:1016100000FF01000001000000000000005F00006A
:101620000003000300147F147F141C22632A1A4352
:101630003308666136495926500000030000000057
:101640003E410000413E00002A1C3E1C2A08083E84
:101650000808008040000008080808080000400052
:101660000000601C03003E5149453E40427F40401F
:10167000625149494622414949361C12117F1027BF
:10168000494949313C4A4949300101710D03364904
:10169000494936064949291E000048000000804893
:1016A0000000000814220000141414000022140882
:1016B0000002015109063E415D492E7E0909097E5D
:1016C0007F494949363E414141227F4141413E7F68
:1016D000494949417F090909013E4141493A7F0889
:1016E00008087F41417F4141304041413F7F08141C
:1016F00022417F404040407F020C027F7F0204086D
:101700007F3E4141413E7F1111110E3E4151215E0C
:101710007F09192946264949493201017F01013FC4
:101720004040403F07384038077F201C207F63142B
:101730000814630304780403615149454300007FA2
:10174000410000031C600000417F000018060106F4
:101750001880808080800001020000384444247892
:101760007F444444383844444420384444447F3817
:1017700054545408087E09090218A4A4A4787F04CC
:1017800004047840447D40404084857C007F1028DC
:10179000440040417F40407C047804787C08040485
:1017A000783844444438FC2424241818242424FC85
:1017B0007C080404084854545424043F4444203C06
:1017C0004040207C1C2040201C3C4030403C4428B1
:1017D0001028449CA0A0403C645454544C0008770A
:1017E000410000007F000000417708001804081045
:1017F0000C5E6101615E021105027F7B5D757B7F7E
:101800001F11111F7F415D5D417F00000000FFFF40
:10181000FFFFFFFF4ED1998BCA71003C66C1BD939B
:101820008A41FFFFFFFFFFFFFFFF00000001067876
:10183000898E8888703535111C22E1A1A1E1221C16
:101840002321167884828185898A742514417689BA
:101850008D818E814D32251153738D898E897991B9
:10186000EF1541413E41C1A2A2A19976131612384B
:101870004482818181423C2417117B45878486C93B
:101880007503146212788484848E85453825341259
:101890000E1111F191CEA0601223513F61A1A1A1BF
:1018A000BFC2FC123711718E898E8874443815229C
:1018B0006238488699A1BDE3BE02612338C4C6459B
:1018C00045F9C27C14221738C446C4442249361450
:1018D000145262958D85828D9562251173384782E9
:1018E00084848247382431261E11D191F111111EB2
:1018F000226241CEB1515191AEA040121714365D13
:101900006322E2E35D362333346C923151913149E5
:101910009622422638448281818749322431730ECF
:10192000113151B1AF8478125522206E91B191914D
:101930006E202261521F2142E2A2D99760136116E4
:101940007090FEA1A1F191FE325226302E6191914C
:10195000B1AE6022373230CE91B1B191CE30224259
:10196000637C8261816181720C2335520E7191D149
:10197000514F88FC121617605E4141C1C15E602361
:101980004255E0904E21719191EE3275137789C2E4
:10199000C4848249372464427FC1C1C1C1FF817EB2
:1019A000133373086E9191B1D18F012255241F71A9
:1019B0009191B1DF040E1234371E21E2A2A2A2914E
:1019C0002E2346526E919191718E8070124346FC87
:1019D00082818183FD82FC1317720ED1B1B1B18176
:1019E000621C2276227BC5C28444320D0314275424
:1019F00070898F81858F89702522777EA183A2824D
:101A0000E3413E2364353D62A1E12161A2DD237300
:101A1000267EB7D3C292B3473E2556617E91F171BF
:101A200091F1211E2245737C828181858B817E25E7
:101A30006427B8C44444C459E33E147156E0A1EF8E
:101A40005151F1B1EE3247440E11B1D1916E320EC7
:101A50001252757E81C5C68645310E247373029F6E
:101A6000D17171D19F02225555FC42814181418241
:101A7000FC2365277EC3C181433D221C1346733F6F
:101A800041C2C48442310F2457261EA1E2A2A19E66
:101A90008870136717182631F1A181413E327743D0
:101AA000788C8E8E8FFF79021545660E3141C151BB
:101AB000CF641C1236751870DC828342221D337588
:101AC000271C22E2A2A39D81FE1361870C7B8989DA
:101AD0008989897E3577350ED131F1F1FEFCF0121E
:101AE00048737088888F8942B9C71566647EE3831E
:101AF000A3A383F37E23483701CEB1914191AEC1B8
:101B00002268276E9181A1A1B18E701256756EF177
:101B1000F1F1D1CEE078124487708F8989897242C1
:101B20003C15863643BE917171519E632227683EF3
:101B300045C3C28283453E2444881E71A1A1A19160
:101B4000710E2267567C82A261212F311E135658D6
:101B50000E11719191AED10F1286461F11F1815174
:101B60009EA5701258653C428187899050381418A0
:101B70008878868787838F4638258476708C828F15
:101B8000818E443825773841E2AED191D1916E32C1
:101B900083867088898F8870A8F81574777E838B08
:101BA00083874F3F1E1575597884824141B12E407D
:101BB0001496650E117191B1A2857B126497DEB106
:101BC000E1F1B19E90F8129575404E5151D1B18E10
:101BD000782259480F7186818681760F2518996E73
:101BE00091B1F191BE8C70129576E3BCE2A2E2A2B3
:101BF000FCE32396487E9181A1B1BF9E6012599467
:101C000070888C8A89742412156957C0AE719191BD
:101C100071AEC02275A63E63E3E3E3E7FF3E136ABD
:101C2000483E71D1D1F161211E22954A7189878781
:101C3000878F8D712593A6087C8E8E8F8F7D0825CA
:101C4000A874758F888C8C98FF751581AA0F798A76
:101C5000898A897A0F252AA9708E89898A9D723C82
:101C6000155A9A7E8F858888857F3E25AAA502759C
:101C70008D85858D750225AAAA3C4281818181428C
:101C80003C24BBBB0000000017000300031F0A1F19
:101C90001E331A1904131B1513000300000E111133
:101CA0000E00150E15040E040018000404040010A4
:101CB00000100E011F111F121F1019151211150A05
:101CC00007041F1315091E151D0119071F151F17DE
:101CD000150F000A00001A00040A110A0A0A110A64
:101CE000040115020E11161E051E1F150A0E1111F4
:101CF0001F110E1F15111F05010E111D1F041F11AD
:101D00001F1108110F1F041B1F10101F071F1F0199
:101D10001E0E110E1F05020E19161F051A121509A7
:101D2000011F010F101F0718071F181F1B041B039B
:101D30001C03191513001F11010E10111F000201C1
:101D4000021010100102000C121C1F120C0C1212B7
:101D50000C121F0C12141E0902161A0C1F04181460
:101D60001D10101D001F0816111F101E0E1C1E0234
:101D70001C0C120C1E0A04040A1E1C020214120A75
:101D8000020F120E101E0E100E1E181E120C121232
:101D9000140E1A1216041B11001F00111B040C0450
:101DA000060000000000000000000000000000002D
:101DB000531E11241FBECFEFDAE0DEBFCDBF12E00D
:101DC000A0E0B1E0EAE3F2E502C005900D92AE3189
:101DD000B107D9F727E0AEE1B2E001C01D92AB3503
:101DE000B207E1F71EE0C9EDDEE004C02197FE0175
:101DF0000E941529C83DD107C9F70E94771E0C948F
:101E00001B290C9400000F93CF93DF93A62FB0E013
:101E100093E0B595A7959A95E1F7B695BA2FAA27BD
:101E2000B795A795A20FB11DA80FB11DA358BC4F20
:101E30006770215008F1FA01E20FF11DE491F0E022
:101E4000062E02C0EE0FFF1F0A94E2F7ED01C05804
:101E5000D1098881002339F08E2B88838C918F2BB8
:101E60008C931197E6CF9E2F909589238883E095D8
:101E7000F0958C918F23F4CFDF91CF910F9108953E
:101E8000DF92EF92FF920F931F93CF93DF93182F60
:101E9000D62FD22E7A01C12FF70141917F01442321
:101EA000B9F04A3011F4DA5FF6CF403211F4CE5F68
:101EB000F3CF4052F3E04F02A00111244C57534E90
:101EC0000D2D23E06D2F8C2F0E94030FCC5FE4CFEC
:101ED000DF91CF911F910F91FF90EF90DF900895C8
:101EE000A62FB0E0FD01E40FF11DE134F10514F07F
:101EF00040E4461B93E0B595A7959A95E1F7B69512
:101F0000BA2FAA27B795A795A80FB11DFD01E250DA
:101F1000FD4F21956770308188E090E0861B910924
:101F20004817190609F0B4F447708FEF90E002C02B
:101F3000880F991F4A95E2F78095909501C0880F08
:101F40006A95EAF7222319F0832B80830895809500
:101F50008323FBCFAFEFB0E0062E01C0AA0F0A9497
:101F6000EAF7222359F0A32BA0836850460F49308B
:101F700040F0E058FF4F20834850F9CFA095A323AD
:101F8000F3CF442319F38FEF90E001C0880F4A95F7
:101F9000EAF7E058FF4F30812223D1F28095D4CF69
:101FA000CF93DF93262FEAEEF2E03081082E000C6B
:101FB000990B830F911D37FD9A950A96CAE0D0E0E0
:101FC000BE010E94012980833181822F220F990B4B
:101FD000830F911D37FD9A950A96BE010E94012933
:101FE0008183DF91CF910895EF92FF920F931F931A
:101FF000CF93DF93182FF62EE22EEA014991442366
:1020000079F0405285E04802A00111244A5E594E01
:102010000E2D25E06F2D812F0E94030F1A5FEECF4A
:10202000DF91CF911F910F91FF90EF900895CF9383
:10203000DF93262FE9ECF2E0358D082E000C990B8A
:10204000830F911D37FD9A950396C3E0D0E0BE0142
:102050000E940129858F368D822F220F990B830FC5
:10206000911D37FD9A950396BE010E940129868F26
:10207000DF91CF9108958091DA028F7709F18091F5
:10208000DB028F77E9F08091DC028F77C9F08091D5
:10209000DD028F77A9F08091DE028F7789F0809141
:1020A000DF028F7769F08091E0028F7749F08091AD
:1020B000E1028F7729F09091E2029F7781E009F4A5
:1020C00080E0089580E0EEEFF2E081118FEF0024D0
:1020D00081938193819381930394D1F70895909193
:1020E0005407982329F490915307982381E009F429
:1020F00080E00895FC018091C802882311F13FB768
:10210000F89482E08093E9002091F200822F90E021
:102110001816190614F481E090E0882339F0289805
:1021200044E64093C7024091F1004083222339F0F6
:102130002091F200211103C02BE62093E8003FBF5D
:1021400008958FEF9FEF08952FB7F89483E0809361
:10215000E9009091E800892F807295FF04C090916A
:10216000F20080E4891B2FBF08958091BF02811186
:102170000DC082E08093BB0284E08093BC02109289
:10218000BE021092BD0281E08093BF028BEB92E011
:102190000895CF93DF931F92CDB7DEB76983DC013B
:1021A000ED91FC910280F381E02D41E050E0BE0111
:1021B0006F5F7F4F09950F90DF91CF91089583E076
:1021C0008093E9008091F200882319F08AE38093DC
:1021D000E80008950E94A41090E00895CF93DF9343
:1021E0001F92CDB7DEB7FC018485958597FD08C0A9
:1021F0002FEF3FEF358724870F90DF91CF91089520
:10220000CE0101960E947A10019719F4898190E01D
:10221000F3CF8FEF9FEFF0CF0F931F93CF93DF9309
:102220001F92CDB7DEB78C01FC018485958597FFA1
:102230000BC0CE0101960E947A10019771F489813A
:1022400090E0F80195878487F801848595850F9043
:10225000DF91CF911F910F9108958FEF9FEFF1CFF5
:10226000FC018485958597FD0BC09FB7F89482E0AB
:102270008093E9008091F2009FBF90E0019608955D
:102280009FB7F89482E08093E9008091F2009FBFAD
:1022900090E008954091B5025091B6022091B302AA
:1022A0003091B40242175307B4F49091E80095704E
:1022B000E1F39091E80092FD19C08093F1008091C4
:1022C000B5029091B60201968F739927892B19F464
:1022D0008EEF8093E8008091B5029091B60201964E
:1022E0009093B6028093B50281E0089580E008954E
:1022F000EF92FF920F931F93CF93DF93F82E192F36
:10230000E62E042F81E0860F880F0E944A1183E099
:102310000E944A11CF2DD12FEC0EFD2EF11CCE15AF
:10232000DF05B9F007FF13C0FE0184910E944A1136
:10233000182F80E00E944A11812321968111EFCF4E
:10234000DF91CF911F910F91FF90EF9008958881B9
:10235000EDCF81E0F5CFDF92EF92FF920F931F93C5
:10236000CF93DF93D82E8A01EB017B01E40EF51E9B
:10237000CE15DF0559F0D7FE12C0FE0184910E94F0
:102380004A1121968111F4CF0FEF1FEFC801DF91A1
:10239000CF911F910F91FF90EF90DF90089588816A
:1023A000EECF0F931F93CF93DF931F92CDB7DEB77E
:1023B00082E0898342E450E069E975E180E80E94A7
:1023C000AB110E94B510DC0112960D911C91011504
:1023D000110589F0D801ED91FC910280F381E02D87
:1023E000BE016F5F7F4FC801099597FD04C0F801DA
:1023F00000851185ECCF89810F90DF91CF911F91DE
:102400000F910895615030F02091F100FC0120837C
:102410000196F8CF289884E68093C70208953FB7C5
:10242000F8948091A7029091A802A091A902B0917E
:10243000AA0226B5A89B05C02F3F19F00196A11D41
:10244000B11D3FBFBA2FA92F982F8827BC01CD01FE
:10245000620F711D811D911D42E0660F771F881F5D
:10246000991F4A95D1F708958F929F92AF92BF928C
:10247000CF92DF92EF92FF926B017C010E940F12CC
:102480004B015C01C114D104E104F104B9F00E94D4
:102490000F12681979098A099B09683E7340810502
:1024A000910580F321E0C21AD108E108F10888EE15
:1024B000880E83E0981EA11CB11CE4CFFF90EF9022
:1024C000DF90CF90BF90AF909F908F90089565E080
:1024D00070E080E090E00C9434128F929F92AF9263
:1024E000BF92CF92DF92EF92FF920F931F93CF9301
:1024F000DF936C017B018A0180910C01882309F430
:102500005CC08091C802882309F457C08091BA0248
:1025100080FF05C08091E00082608093E000E801C8
:10252000B12C8AEFA82E93E0892E2AE3922E2097D1
:1025300011F4BB20D9F10E94A41081110AC0AA9401
:10254000AA20D9F161E070E080E090E00E943412AE
:10255000EECF8C171D0611F00CF08C2F9FB7F8945E
:102560008092E9002091E80025FD02C09FBFDFCFE7
:10257000282F30E0C21BD30BF701815020F041918E
:102580004093F100FACFE20EF31EBB2021F09092AF
:10259000E800B12CEBCF8091E80085FDE7CF909269
:1025A000E800BB24B394209709F3F3CF5D9884E649
:1025B0008093B902101611063CF081E090E0F6011C
:1025C0009383828310E000E0C801DF91CF911F91D7
:1025D0000F91FF90EF90DF90CF90BF90AF909F90C2
:1025E0008F90089580389105BCF460347105A4F48F
:1025F00020E191E061FD94E060FD990F62FD92950C
:10260000687F269FD0011124A80FA250BD4F8C9146
:10261000442319F0892B8C93089590958923FBCF3F
:10262000EF92FF920F931F93CF93DF93C42FD22F7C
:10263000E62EF12C082F10E0C15040F04D2FB701CD
:10264000C8018C0F911D0E94F212F6CFDF91CF913D
:102650001F910F91FF90EF9008959F92AF92BF92BC
:10266000CF92DF92EF92FF920F931F93CF93DF935E
:10267000082F6B01FB019F012F5F3F4F808181116C
:102680002DC0EC19FD091E2F110FE10F1E2F110F88
:102690008FEF810F90E0C0E8D0E0C81BD90BD7FDC9
:1026A0002196D595C7957E01FF24570124E0A21AF3
:1026B000B108E80EF91E83E0E80EF11C992493940A
:1026C000900EEA14FB0464F021E04FE0692D8A2D9E
:1026D0000E94700F9FEFA91AB90AF3CFF901CBCF6F
:1026E000DC2FD55020E041E1602F8D2F0E94700F2C
:1026F00083E0810F20E041E1602F8C0F0E94700F7A
:102700001B5F20E0412F602F8D2F0E94101360E18E
:10271000600F20E0412F8D2F0E94101365E0600FA5
:1027200020E0A6018C2FDF91CF911F910F91FF9098
:10273000EF90DF90CF90BF90AF909F900C94F40FEC
:10274000AF92BF92CF92DF92FF920F931F93CF93DE
:10275000DF93F82E162FD2E1D80FC82F21E044E1E5
:10276000612F8C2F0E94700FCF5FDC13F7CFC12F2A
:10277000D0E0CF2CD12C40E0BE01C6010E94F21265
:10278000560181E1A80EB11C40E0BE01C5010E94C6
:10279000F212639640E0BE01C6010E94F21240E0D0
:1027A000BE01C5010E94F21262E0610F00E02EE05E
:1027B00044E158E182E08F0D0E94030FDF91CF9139
:1027C0001F910F91FF90DF90CF90BF90AF90089531
:1027D0002F923F924F925F926F927F928F929F9231
:1027E000AF92BF92CF92DF92EF92FF920F931F931F
:1027F000CF93DF9300D000D0CDB7DEB7E09159077B
:10280000F0915A07F695E795F695E795E37010E095
:1028100000E0642E712C422E512C2E2F30E03C8390
:102820002B83E62EF12CC82ED12C190184E6280E1C
:10283000311C23E0A22EB12CF701E40DF51DFA8323
:10284000E9830615170524F54601800E911EC10186
:10285000801B910BB5010E94012941E0019709F00D
:1028600040E0B701C4010E94F2128B819C81800F6D
:10287000911FB5010E94012941E0892B09F040E038
:1028800069817A81C4010E94F2120F5F1F4FD9CF74
:10289000B12CA12C03E010E02B803C80F4E62F0E3D
:1028A000311C6C0C7D1C47018A0C9B1C8B819C810C
:1028B0008A0D9B1DB8010E94012941E0019709F092
:1028C00040E0B401C6010E94F212C1018A199B09BD
:1028D000B8010E94012941E0892B09F040E0B401D0
:1028E000C3010E94F2122FEFA21AB20AA414B50477
:1028F000D4F20F900F900F900F90DF91CF911F9116
:102900000F91FF90EF90DF90CF90BF90AF909F908E
:102910008F907F906F905F904F903F902F90089591
:102920000895A6E2B2E030E020E0FC01E20FF31FE0
:10293000E491EE2331F0ED932F5F3F4F2F373105B8
:10294000A1F72A5D3D4FF901108286E292E00895D9
:10295000CF93DF93EB01E6E0BE010E94ED2890E308
:10296000980F9A3310F097E3980F2FEF2E0FF0E0A7
:10297000E25EFD4F9083CB01672B39F4822F90E00C
:10298000815E9D4FDF91CF910895E22FE5CFFC014D
:10299000623041F0633041F08181613009F082950D
:1029A0008F7008958081FBCF8081FACFFC01408138
:1029B000449FC001112423E0969587952A95E1F75D
:1029C0005BE1589F9001599F300D112456E03695D8
:1029D00027955A95E1F7429FC001439F900D11241E
:1029E00001968132FEE49F0768F028EE33E0B901DA
:1029F0000E94ED28629FC001639F900D729F900D11
:102A000011240895893E23E0920758F064E670E0AF
:102A10000E94ED2824E6269FC001279F900D1124D7
:102A200008958F319105E0F36AE070E00E94ED288F
:102A30002AE0F1CFDC01EC91BBE0EB9FF001112427
:102A4000E55DF74E8591949108956F927F928F92F4
:102A50009F92AF92BF92CF92DF92EF92FF920F932D
:102A60001F93CF93DF935C01062F142FD22EE2E148
:102A7000FE2EF60EC62FD1E0D2272D2F44E1612F76
:102A80008C2F0E94700FCF5FCF11F7CF78E0C72E49
:102A9000C00EE12EF12CC02FD0E0DD2041F121E06D
:102AA00043E0612F802F0E94101321E049E0612F45
:102AB0008C2D0E94101321E041E163E1610F802F12
:102AC0000E94101341E0B7016F5F7F4FCE010E945B
:102AD000F21221E04BE069E0610F802F0E94700F3D
:102AE00021E044E1612F81E1800F0E94700F40E0FE
:102AF000B701CE010E94F21240E0B7014E0131E170
:102B0000830E911CC4010E94F21240E0370173E170
:102B1000670E711CB301CE010E94F21240E0B301B6
:102B2000C4010E94F212C5010E941A15982E892E26
:102B3000892F82958F7060E170E090E00E94A81468
:102B400023E0722E710E2D2DAC01672D802F0E9477
:102B5000400F882D8F7060E170E090E00E94A81413
:102B60000C5F2D2DAC01612F802F0E94400F892D0D
:102B700082958F7060E170E090E00E94A8142D2D86
:102B8000AC01672D8C2D0E94400F892D8F7060E164
:102B900070E090E00E94A81466E0610F2D2DAC015A
:102BA000802F0E94400FF50140813BE0932E499D0C
:102BB000A00111244E5D574E6AE0610F0D2D28E0F3
:102BC0008C2D0E94030FF5012081299D9001112475
:102BD000F901E65DF74E84914091590750915A07EB
:102BE000569547955695479555272E5D374EF901D1
:102BF0003396649132969491F3E66F9F900D112471
:102C00002F5F3F4FF90124919417150681F1F3E3EB
:102C10009F9F200D1124EDE42E9F202D11242417B9
:102C2000150629F1982F9F70E90EF11C3AE0E30E8A
:102C3000F11C82958F70C80FD11D4D2DB701CE01AB
:102C400008960E94F2124D2DB701CE010A96DF912F
:102C5000CF911F910F91FF90EF90DF90CF90BF9099
:102C6000AF909F908F907F906F900C94F212DF91B5
:102C7000CF911F910F91FF90EF90DF90CF90BF9079
:102C8000AF909F908F907F906F900895CF93CFEFEC
:102C9000C80F8C2F86958695869590E042960E9467
:102CA000682890E0C77002C095958795CA95E2F7AD
:102CB0008170CF9108957F928F929F92AF92BF9231
:102CC000CF92DF92EF92FF920F931F93CF93DF93F8
:102CD00000D01F92CDB7DEB72091590730915A0727
:102CE0003695279536952795922F93709983B82E10
:102CF000D12CC12CF12CE12C882483945AE0A52EF0
:102D00009C2C11E081E090E09B838A832A813B81A7
:102D1000215031098091F60290E04A815B814C0D8F
:102D20005D1DEAEEF2E0BF016A5E72406817790746
:102D30000CF063C06281319664171506A1F701E0BB
:102D40008091EA02082E000C990B8E159F0569F4FC
:102D50008091EB02082E000C990B8217930729F43F
:102D6000772473949981923008F0712C8A81890DAF
:102D70000E944616972D982522E0270D220F472DF9
:102D800050E0440F551F440F551F8A9D400D511DA3
:102D900011240A9D400D511D11244A50584E692F8F
:102DA000610F01E0892F8B0D0E94030F8A819B81A7
:102DB00001969B838A831A5F1D3309F0A7CF9FEF8B
:102DC000E91AF90A85E0B80E9AE0C90ED11C8AE02A
:102DD000E816F10409F094CF0F900F900F90DF9157
:102DE000CF911F910F91FF90EF90DF90CF90BF9008
:102DF000AF909F908F907F90089500E0A1CF1F9398
:102E0000CF93DF93C2E1D0E010E0CE010E946828AA
:102E1000982F969595758575980F892F8695869527
:102E200083739373890F982F92959F708F70890F7A
:102E3000180F2196CF31D10541F7812FDF91CF9126
:102E40001F910895CF9380E290E00E946828C82FD8
:102E50008FE190E00E9468289C2FCF91089521E097
:102E60004AE060E088E50E94700F21E048E269E0F6
:102E700088E50E94101321E048EA51E061E08AE50C
:102E80000E94F40F0E9422176AE070E00E94A814CA
:102E900021E0AC0161E082E60C94F40FCF9382E272
:102EA00090E00E946828C82F81E290E00E94682884
:102EB0009C2FCF910895CF93DF93C82F0E944E1778
:102EC000D0E09E0144E0359527954A95E1F7220F21
:102ED00002C0969587952A95E2F79C012C273D27FD
:102EE0002370332781E0232B09F080E0DF91CF911D
:102EF0000895CF92DF92EF92FF920F931F93CF939B
:102F0000DF93E82E80E20E945B17882359F100913D
:102F1000E30210E02091CA02E4E0F0E0C1E0D0E07A
:102F20000E2C000CFF0885E0C82ED12C85E0289FD0
:102F30009001112427533D4FEC9EC001ED9E900D52
:102F4000FC9E900D1124800F911F0596B6010E94E2
:102F50000129D901A80FB91F12964C91442359F0A9
:102F60008093E302DF91CF911F910F91FF90EF903B
:102F7000DF90CF90089521963197F1F6F3CF2F92FD
:102F80003F924F925F926F927F928F929F92AF92F9
:102F9000BF92CF92DF92EF92FF920F931F93CF9346
:102FA000DF9300D000D000D0CDB7DEB75090E6025E
:102FB0004090E702852D90E0FC01EE0FFF1FE80F27
:102FC000F91FE40DF11DE652FD4F9081892F8F7797
:102FD00009F0E9C02091CA0281E0821B8E83A09192
:102FE000E3028170382E85E0289F90011124275339
:102FF0003D4FA20FB32FB11D12968C9112978F7770
:103000009078892B30FA87F9808312961C928F77FB
:103010008983CE0101960E941A159C838B839EE0C2
:10302000892E96E1992E10E000E066246394712CBD
:10303000F401A490A50C3196E491E40DF2E0FA15A8
:1030400008F486C0E33008F083C0B12CCE2ED12C1A
:103050007501EE0CFF1CF701EA0DFB1DEC0DFD1DCB
:10306000E652FD4F8081982F9F7709F471C087FB4E
:10307000882780F92E81281709F46AC09D83CE0124
:1030800005960E941A159A83898380E50E945B1732
:10309000882389F0602FCE0103960E94C714282E42
:1030A000B8016E5F7F4F63707727CE0101960E9453
:1030B000C714821588F181E50E945B178823B1F05F
:1030C000602FCE0103960E94C714282EB8016E5FB0
:1030D0007F4F63707727CE0101960E94C714821537
:1030E000D8F091E0291202C08A30B1F083E50E9445
:1030F0005B17882369F1602FCE0103960E94C714E5
:10310000282EB8016E5F7F4F63707727CE0101963E
:103110000E94C7142816E0F0F701EA0DFB1DEC0D24
:10312000FD1DE652FD4F808130FA87F98083809142
:10313000CA0290E0FC01E753FD4F238D2F5F238FE0
:10314000F301E81BF90BE753FD4F838D8150838F0B
:103150000F5F1F4FE2E08E0E911C0430110509F045
:1031600067CF8091E6029091E7029093E902809305
:10317000E80281E026960FB6F894DEBF0FBECDBF01
:10318000DF91CF911F910F91FF90EF90DF90CF9043
:10319000BF90AF909F908F907F906F905F904F9077
:1031A0003F902F90089580E0E5CF2F923F924F926D
:1031B0005F926F927F928F929F92AF92BF92CF92C7
:1031C000DF92EF92FF920F931F93CF93DF9300D084
:1031D00000D01F92CDB7DEB78091CA0291E0292EB0
:1031E000281A44244A94D12CC12C80E20E945B17F7
:1031F000811106C08091E3028C151D0409F0C1C045
:103200008091CA02F60195E0989FE00DF11D11240E
:10321000E753FD4F8281882309F4B3C08983CE012F
:1032200001960E941A159C838B83F12CE12CB12C02
:10323000A12C3701660C771C6E0C7F1CF301EA0D84
:10324000FB1DE652FD4F80818F7709F08AC05EE05A
:10325000852E56E1952E512C10E000E0F40184916A
:103260008E0D3196E491EA0D833008F068C0E330AA
:1032700008F065C090E09C01220F331F820F931F5E
:10328000E80FF92FF11DE652FD4F8081982F9F77AF
:1032900009F455C087FB882780F9281609F44FC028
:1032A0009D83CE0105960E941A159A83898380E535
:1032B0000E945B17882389F0602FCE0103960E943D
:1032C000C714382EB8016E5F7F4F63707727CE0129
:1032D00001960E94C714831588F181E50E945B174F
:1032E0008823B1F0602FCE0103960E94C714382EB8
:1032F000B8016E5F7F4F63707727CE0101960E9401
:10330000C7148315D8F0F1E03F1202C08A30B1F043
:1033100083E50E945B17882391F0602FCE0103960E
:103320000E94C714382EB8016E5F7F4F63707727F5
:10333000CE0101960E94C714381608F053940F5F0F
:103340001F4F82E0880E911C0430110509F086CFD2
:1033500045143CF4E092E602A092E702C092E30238
:10336000452C9FEFA91AB90AE3E0AE16B10409F0A3
:1033700065CFFFEFEF1AFF0A83E0E816F10409F0CA
:1033800056CF9FEFC91AD90AE5E0CE16D10409F04D
:103390002CCF0F900F900F900F900F90DF91CF9147
:1033A0001F910F91FF90EF90DF90CF90BF90AF9063
:1033B0009F908F907F906F905F904F903F902F9055
:1033C00008951F93CF93DF931FEF180FC12FC6955A
:1033D000C695C695D0E06296CE010E946828177007
:1033E00061E070E001C0660F1A95EAF7682BCE0124
:1033F000DF91CF911F910C947028CF93DF93EC0154
:10340000C1368AEED80710F0C0E6DAEE6D2F80E202
:1034100090E00E9470286C2F8FE190E0DF91CF91B7
:103420000C947028CF92DF92EF92FF920F931F932C
:10343000CF93DF931F92CDB7DEB7F82E8093F702BC
:103440000E94FF161F140CF45CC08AE090E0909379
:10345000F9028093F8021092FC021092FD02109281
:10346000FB021092FA0281E0F812A4C080E00E94F0
:103470005B17182F3AEEE32E32E0F32E4FEEC42EF8
:1034800042E0D42E882309F474C00E94102825E05D
:1034900030E040E050E00E947E2866517D4FFB0105
:1034A00017811093FC02812F0E944616882309F48D
:1034B0007DC01983CE0101960E94D61423E0969513
:1034C00087952A95E1F79093FB028093FA020E9478
:1034D00022172091F8023091F9024091FA0250919E
:1034E000FB02240F351F820F931F0E94FD190F90BE
:1034F000DF91CF911F910F91FF90EF90DF90CF90D0
:1035000008958983CE0101960E94D6146AE070E086
:103510000E94ED288B017093F9026093F80281E11B
:103520000E945B17882381F0000F111F1093F9028E
:103530000093F8028091F8029091F902449708F004
:103540008ACF84E190E083CF82E10E945B178823D9
:1035500031F0C801880F991F080F191FE7CF83E1C9
:103560000E945B17882331F3000F111F000F111FFA
:10357000DDCF112391F081E00E945B17882321F0B9
:10358000F7018781811748F082E00E945B1788234A
:1035900031F0F7018781181710F4F7011781FFEF59
:1035A000EF1AFF0ACE14DF0421F77BCF812F0E9490
:1035B000E1198DCF8FEFF8128ACF80E00E945B1760
:1035C000182F8AEEE82E82E0F82E9FEEC92E92E0A8
:1035D000D92E112339F10E94102825E030E040E077
:1035E00050E00E947E2866517D4FFB0112811093AE
:1035F000FD021150E12EE694E694E694F12C82E16E
:10360000E80EF11CC7010E946828177061E070E0A5
:1036100001C0660F1A95EAF760956823C7010E94FA
:10362000702855CF112391F081E00E945B17882309
:1036300021F0F7018281811748F082E00E945B1738
:10364000882331F0F7018281181710F4F7011281F5
:10365000FFEFEF1AFF0ACE14DF0421F7C8CF0F9354
:103660001F93CF93DF9382E20E945B17882349F078
:103670000E94102825E030E040E050E00E947E28C3
:10368000862FE091CA02D0E0C0E0282F30E005E0AC
:1036900010E085E0E89FF0011124E753FD4FCE01D3
:1036A000820F931FB8010E940129DF01A80FB91FE3
:1036B00012964C91442339F08093E302DF91CF912D
:1036C0001F910F9108952196C530D10541F7F6CF8E
:1036D0001F920F920FB60F9211248F939F93809198
:1036E000E1009091E100937F9093E10083FF0FC090
:1036F0001092E90091E09093EB001092EC0092E3BD
:103700009093ED001092C80298E09093F00082FF31
:1037100022C093E09093E9009091F200992319F070
:103720009AE39093E8009091B902992341F0909127
:10373000B90291509093B902911101C05D9A909194
:10374000C702992341F09091C70291509093C7020C
:10375000911101C0289A84FF18C08091E2008E7EEA
:1037600081608093E2008091E1008F7E8093E10090
:103770008091BA028E7E80618093BA029F918F9170
:103780000F900FBE0F901F90189580FFF7CF80917C
:10379000E2008E7E80618093E2008091E1008E7E67
:1037A0008093E1008091BA028E7E8160E5CF1F9206
:1037B0000F920FB60F921124CF92DF92EF92FF92E9
:1037C0000F931F932F933F934F935F936F937F9329
:1037D0008F939F93AF93BF93EF93FF93CF93DF9319
:1037E000CDB7DEB76C97DEBFCDBF1092E9008091F8
:1037F000E80083FF25C068E0CE0145960E940212D2
:1038000082EF8093E8008D8987FF39C09091E800AE
:1038100090FFFCCF982F907609F034C19E894F8994
:10382000588D2F89F88C911131C0803861F58091C5
:10383000B8028093F1001092F1008EEF8093E800BF
:103840006C960FB6F894DEBF0FBECDBFDF91CF915F
:10385000FF91EF91BF91AF919F918F917F916F9168
:103860005F914F913F912F911F910F91FF90EF909A
:10387000DF90CF900F900FBE0F901F9018959EEF86
:103880009093E800C7CF1092F100D5CF913059F452
:103890008111D3CF4130510581F68091B8028D7FDF
:1038A0008093B802CACF933049F48111C6CF41301A
:1038B000510519F68091B8028260F2CF953041F43B
:1038C0008091E80080FFFCCF20682093E300B5CF13
:1038D000963009F0A9C00B8D1C8D22E01092E900F2
:1038E0001092B6021092B502F2122EC01092B402DB
:1038F0001092B3020E94D1111F8299E09983FA823B
:1039000091E09E8390EA98879AEF99872091B5027B
:103910003091B602275F3F4F3C832B838D831092FB
:10392000E9001092B6021092B5021093B40200930F
:10393000B30249E050E0BE016F5F7F4F80E00E941C
:10394000AB110E94D11179CF1093B4020093B3024E
:103950000E94B510DC0112960D911C910115110504
:1039600009F451C1D801ED91FC910480F581E02D5D
:10397000BE016B5E7F4FC8010995009709F03EC1FB
:10398000F80100851185EACFF3E0FF120EC08F89A0
:10399000882309F440C0823061F440E860E18DEF93
:1039A00095E10E947811811148CF81E28093EB006C
:1039B00047CF813029F440E86BE081EF95E1F1CF0A
:1039C000833099F70E94B510DC011296ED90FC90BF
:1039D0008E010F5F1F4F6801E114F10479F0D701E8
:1039E000ED91FC910680F781E02DB801C7010995A2
:1039F000080F111DF701E084F184EECFD8011C926D
:103A0000F60101900020E9F73197BF016C197D099B
:103A100040E0C601C6CF6BED75E1FB01449150E07B
:103A200080E80E94AB1109CF973009F4BECF9830DF
:103A300021F481E08093F10000CF993009F0FDCEB0
:103A4000837009F0B2CFE2E1F1E081E031E096E38A
:103A50002191222371F08093E9003093EB00DF0184
:103A600011972C912093EC009093ED008F5F87309D
:103A700079F78EE78093EA001092EA008F898093AD
:103A8000C802DBCE8B8D9C8D1092E9001092B6029D
:103A90001092B5029093B4028093B302898D811184
:103AA00092C08E899D89913A49F4813209F07DCF87
:103AB00047E050E065E071E080E0B3CF913209F07B
:103AC00074CF833269F48F89988DB0E0A0E0809341
:103AD000010190930201A0930301B0930401ADCEC4
:103AE000803269F48091E80082FFFCCF67E085E0D6
:103AF00091E00E9402128BEF8093E8009ECE82320A
:103B000009F09BCE8F8980930C01EEEFFFE7859142
:103B100094918B3F9C4D51F1E0E0F8E080910501DC
:103B200090910601A0910701B0910801803B94405B
:103B3000A105B105F1F480910C0180FD1AC0EE3FA2
:103B40008AE0F80789F587E797E79183808380917A
:103B500060008093B70288E19BE00FB6F894A895C7
:103B6000809360000FBE9093600067CEEEEFFAE0A6
:103B7000D5CF808191818737974709F05ECEA89590
:103B8000809160008861809360008091B70280938B
:103B90006000EE3F2AE0F20789F08091FE0A9091E2
:103BA000FF0A9183808349CE80819181873798076E
:103BB00051F29093FF0A8093FE0AC5CF1092FF0A3C
:103BC0001092FE0A3ACE0E94B510DC0112960D91B9
:103BD0001C910115110509F4E8CED801ED91FC9175
:103BE0000190F081E02DBE016B5E7F4FC801099509
:103BF000811123CEF80100851185EBCF1816190627
:103C00000CF41BCED2CEF1E0FF12BECE6FED75E10B
:103C100004CF1F920F920FB60F9211242F933F9350
:103C20008F939F93AF93BF938091AB029091AC021F
:103C3000A091AD02B091AE023091A60223E0230F15
:103C40002D3758F50196A11DB11D2093A602809332
:103C5000AB029093AC02A093AD02B093AE02809100
:103C6000A7029091A802A091A902B091AA02019680
:103C7000A11DB11D8093A7029093A802A093A90251
:103C8000B093AA02BF91AF919F918F913F912F91D5
:103C90000F900FBE0F901F90189526E8230F0296E5
:103CA000A11DB11DD2CFEEEFF6E01382128288EE95
:103CB00093E0A0E0B0E084839583A683B7838CE192
:103CC00091E0918380838FEF9FEF95878487EEE467
:103CD000F7E01582168280E18783148213821186B1
:103CE0008EE291E091838083148613860895CF93AA
:103CF000DF93CDB7DEB72E970FB6F894DEBF0FBEB9
:103D0000CDBF789484B5826084BD84B5816084BD64
:103D100085B5826085BD85B5816085BD80916E0069
:103D2000816080936E00109281008091810082609A
:103D300080938100809181008160809381008091D7
:103D400080008160809380008091910082608093E8
:103D5000910080919100816080939100809190000A
:103D60008160809390008091C10084608093C10045
:103D70008091C10082608093C1008091C100816008
:103D80008093C1008091C30081608093C3008091C3
:103D9000C00082608093C0008091C20081608093E7
:103DA000C20080917A00846080937A0080917A00CA
:103DB000826080937A0080917A00816080937A009B
:103DC00080917A00806880937A001092C8021092E5
:103DD000B8021092BA028091D70081608093D70018
:103DE00080EA8093D80089B5806189BD89B58260F9
:103DF00089BD09B400FEFDCF61E070E080E090E095
:103E00000E9434128091D8008F7C80618093D8000A
:103E10008091E000807F8093E0008091E1008E7EC1
:103E20008093E1008DE08093E200559A209A81EC26
:103E300080937C0085B1806F85B984B1877E84B919
:103E400084B1876E84B95E9A5F988AB1806D8AB9B1
:103E5000769A6E9881B3806F81BB899880B38D709C
:103E600080BB80E58CBD81E08DBD0E9467125F9AAA
:103E70000E9467125E985C98E2E7F2E18FE792E1B8
:103E800024912EBD00000DB407FEFDCF31968E1794
:103E90009F07B1F75C9A81E8809364008091650088
:103EA0008160809365005C9887EA8EBD00000DB448
:103EB00007FEFDCF5C9A0E94621081E190E00E94B3
:103EC0006828182F80E190E00E946828912F873998
:103ED000944F41F164EF81E190E00E94702867E91E
:103EE00080E190E00E94702802E110E060E0C801EB
:103EF0000E9470280F5F1F4F0F311105B9F76FE156
:103F000082E190E00E94702890E080E00E94FD191C
:103F100060E082E290E00E94702860E081E290E040
:103F20000E94702888E28093AF021092B0028091C4
:103F300064008E7F8093640080917A008064809317
:103F40007A0080917A0086FDFCCF00917800109174
:103F500079000E940F12AB01BC01C801B0E0A0E0E3
:103F6000DC01992788278C019D01040F151F261F4E
:103F7000371FC901B80120916400216020936400BB
:103F8000611571058105910511F00E945F2811E00E
:103F900063E0262E312C8FB7F8944091AB025091FC
:103FA000AC026091AD027091AE028FBF8091560756
:103FB000242F281B822F90915707992359F0209383
:103FC000580710925707E0E0F0E0EF2B21F30E9432
:103FD0000000DDCF90915507291738F48F5F8917BE
:103FE00090F713BF889513BEEECF109357074093F9
:103FF000560780915107909152070196909352076E
:10400000809351070E946210809153078093540758
:104010008FB18095807F669B88601C9B84608093B5
:104020005307E0910001E150E43108F034C0F0E0C2
:10403000E45EFF4D0C94152930206620CA20F42040
:104040004B204B204B204B204B2001214E21BD21EA
:10405000DE22F0221A2322234B204B204B207423F4
:1040600080E80E946F10882319F08FEF0E94791763
:1040700080E10E946F10882319F081E00E94791777
:1040800088E00E946F10882309F4C5C382E0809302
:1040900000018093C902E0910001E150E03108F095
:1040A000D3C4F0E0EA5AFF4D0C9415290B240B24DD
:1040B0000B240B242425242524252425242581258F
:1040C000252625269D2681255727572780E80E94EB
:1040D0006F10882321F06FEF80E00E94171080E1BD
:1040E0000E946F10882321F061E080E00E94171089
:1040F00080E20E946F10882321F060E08FEF0E9421
:10410000171080E40E946F10882321F060E081E0A6
:104110000E94171088E00E946F10882381F10E948E
:10412000BF17882361F10E943B10882399F090917A
:10413000E4028091E502981B81E019160CF080E002
:10414000991F9927991F891B0E94121A84E0809356
:104150000001A1CF8091CA02312F381B3093CA02CF
:104160000E942F1B0E94D51883E08093000180934A
:10417000C9028091E3028093B2021092B10284E0FE
:104180000E946F10882309F486CF109300011093CA
:10419000C90281CF8091590790915A078F70992752
:1041A000892B41F48091B1028F5F8093B10281E04D
:1041B0000E9479178091B102843008F42CC3909149
:1041C000E3028091B202981326C30E94BF170E9497
:1041D0003B108111ACCF8091CA02412F481B409304
:1041E000CA020E942F1BD1CF88E00E946F1081115C
:1041F00006C084E00E946F10882309F40CC38DE090
:10420000A6CF80E80E946F10882321F06FEF80E036
:104210000E94D00F80E10E946F10882321F061E09E
:1042200080E00E94D00F80E20E946F10882321F06E
:1042300060E08FEF0E94D00F80E40E946F1088230F
:1042400021F060E081E00E94D00F88E00E946F10B2
:104250008823E1F08091EA020091EB020F5F5AE0BF
:10426000859F000D1124802F0E94461681110EC0DB
:104270000E9422177C010983CE0101960E94D61468
:10428000E816F90618F08EE08093000184E00E94A1
:104290006F10882309F4FFCE84E159CF80E80E9493
:1042A0006F10882321F06FEF80E00E94D00F80E133
:1042B0000E946F10882321F061E080E00E94D00FFF
:1042C00080E20E946F10882321F060E08FEF0E944F
:1042D000D00F80E40E946F10882321F060E081E01D
:1042E0000E94D00F88E00E946F10882381F1F09027
:1042F000F60285E0F81621F18091EA020091EB02C6
:104300009AE0899F000D1124EE24E394E00E8E2D97
:104310000E9446168823A1F0AAEEB2E0EF2DF0E04D
:10432000802F90E001969D012A5E32402E173F07B4
:10433000ECF412962C91129711962817190699F7FA
:104340008091F602853019F48CE08093000184E0BE
:104350000E946F10882309F49ECE8091F602882374
:1043600009F49ACF81508093F60295CEE651FD4F25
:10437000E282F394F092F602E3CF88E00E946F109D
:10438000882309F48AC00E94FF16843609F08DC084
:1043900085E68093F1028093F2028093F30280938A
:1043A000F4028093F50230E020E0C901880F991FE4
:1043B000820F931FFC01E652FD4F1082FC01E55273
:1043C000FD4F108284529D4FDC011C922F5F3F4FA6
:1043D0002330310551F7ECEEF2E0ABECB2E0819125
:1043E0008D93848114968C93149702E0E13FF0073B
:1043F000B1F781E30E945B17882309F49DC00E94F6
:1044000010286B017C010E9410284B015C01C70140
:10441000B60125E030E040E050E00E947E2870E0E8
:104420009B0127533D4F7901D90112960C91C5018B
:10443000B40125E030E040E050E00E947E28E62F05
:10444000F0E0E753FD4F8781D70112968C930783E5
:104450000E942F1B0E94102822E030E040E050E034
:104460000E947E286093CA02662309F4A4C083E0F8
:104470008093C90285E08093E5028093E4028091F5
:10448000C90280930001833041F40E94D5188091C5
:10449000E3028093B2021092B10284E00E946F1096
:1044A000882309F4F8CD8BE052CE2AE0622F0E94D7
:1044B000E128829F902C1124939499E0899F802D6C
:1044C00011248B5E853608F084E65AEEA52E52E064
:1044D000B52E282F30E050E040E02A873B874C87FC
:1044E0005D87492C512C712C612C8A859B85AC856C
:1044F000BD85481659066A067B069CF46C017D0151
:10450000C418D508E608F70841F00E941028A70152
:1045100096010E947E286B017C014C0C5D1C6E1C78
:104520007F1CEAEEF2E0AE16BF0609F40DC5319627
:1045300086814812F8CFD5CF82E30E945B1788238B
:1045400009F486CF0E9410284B015C010E941028BC
:1045500025E030E040E050E00E947E28FB01E75378
:10456000FD4F7F01C501B40124E630E040E050E09A
:104570000E947E286F5FD70112966C930E941028CC
:104580004B015C010E94102825E030E040E050E043
:104590000E947E28FB01E753FD4F7F01C501B40156
:1045A00024E630E040E050E00E947E286F5FD701B3
:1045B00017966C934DCF1093C9025CCF88E00E9490
:1045C0006F10811106C084E00E946F10882309F4E7
:1045D000B4C31092EB021092EA021092F6025CCE83
:1045E00088E00E946F108823E9F08091EA023AE0A7
:1045F000D32E0091EB020F5F8D9D000D1124802FB3
:104600000E94E1190E9422177C010983CE010196C4
:104610000E94D614F701E81BF90BCF010E94FD1987
:10462000D092000184E00E946F10882309F433CDFA
:104630008AE08DCD88E00E946F10882309F426CE91
:1046400080E122CE88E00E946F10882309F444C0E4
:104650000E942217843FF1E09F07D8F1845F9140C8
:104660000E94FD190E94102823E130E040E050E054
:104670000E947E28FB01EA57FA4E0491802F0E9487
:104680005B178111EFCF0E944E17202F269526959C
:1046900026952E717101022E02C0EE0CFF1C0A94A9
:1046A000E2F7E094F094E822F9220370E02FF0E0C2
:1046B00002C0EE0FFF1F2A95E2F7EE2AFF2A6F2DA8
:1046C00082E290E00E9470286E2D81E290E00E94CC
:1046D00070288FE08093000184E00E946F1088238F
:1046E00009F4D9CC8FE033CD0E94FF16E82EF0906C
:1046F000AF0204E10F1510F424E1F22E67E06F0D14
:1047000001E022E644E255E18FE00E94030F6FE0F2
:104710006F0D22E642EC54E18FE00E94030F80917E
:10472000AF028823C1F19091590790FD03C08150D9
:104730008093AF028091AF02811186C180E80E9410
:104740006F10882349F08091B00290E00296B10189
:104750000E9401298093B00280E10E946F1088239B
:1047600049F08091B00290E00496B1010E940129C5
:104770008093B00288E00E946F10882309F464C11E
:104780008091B002813009F453CF08F48CCE82308E
:1047900009F4A8CF80CC21E040E351E06EE186E14E
:1047A0000E94F40F89E0EAE0F2E0DE011196019048
:1047B0000D928A95E1F72E2D2150330BC9016AE045
:1047C00070E00E940129FB01ED5EFD4F808189832D
:1047D00021E0AE014F5F5F4F6EE18AE30E94F40F6C
:1047E00021E047E351E068E282E20E94F40F21E019
:1047F00042E451E062E386E10E94F40F6091B0026E
:104800008AE0689F602D1124645E2AE046E584E119
:104810000E94E8138FCF8AEDC82E82E0D82E94E252
:10482000592EF12CE12C3FE0350D3E873601442412
:104830004394B12CA12C4701880C991C8E0C9F1C11
:10484000D3018D913D018F7709F435C1F401EA0D53
:10485000FB1DE652FD4F808187FB222720F98F77D1
:104860008983442D652DCE0101960E942515EFEF19
:10487000AE1ABE0AF5E14F0E00E44012E1CF2FEF71
:10488000E21AF20A33E1530E43E0C40ED11C5DE597
:104890005512C9CF8091C902823089F46091E70234
:1048A00085E1689F602D11248091E60293E1899F44
:1048B000802D112425E143E18D5D0E94E813B9ECC0
:1048C000EB2EB2E0FB2EBB24B394C701895C92406F
:1048D0006C01D70112968C91882309F447C080910E
:1048E000CA02811107C08091E302AA24A3948C1507
:1048F0001D0409F0A12C9A2C990C990C88248394FE
:10490000890C20E042E10FEF0B0D602F882D0E94F3
:10491000101320E044E1602F83E1890D0E94700FA5
:1049200020E044E1602F892D0E94700FF701828101
:10493000898321E04B2D682DCE0101960E9425151B
:10494000AA20A1F08091C902813081F48091590799
:1049500090915A079695879596958795837021E053
:1049600041E551E06B2D885E0E94400FD7011796FC
:104970008C91882309F446C08091CA02813051F499
:104980008091E3028C151D0429F401E08091C90295
:10499000833009F000E00195000F000FFDE69F2E27
:1049A000900E20E042E1AA24AA94AB0C6A2D892D36
:1049B0000E94101320E044E16A2D8FE7800F0E94CF
:1049C000700F20E044E16A2D8CE6800F0E94700F8A
:1049D00081E40E945B1781110BC082E40E945B1787
:1049E000882309F489C0B3E0CB16D1040CF084C04D
:1049F000F7018781898320E04B2D692DCE01019637
:104A00000E942515FFEFEF1AFF0A0CE0B00E2DE310
:104A1000B2125BCF8091E4026AE070E090E00E9405
:104A2000A81421E0AC0168E38EE10E94F40F8091AC
:104A3000E5026AE070E090E00E94A81421E0AC0179
:104A400068E38DE50E94F40F80910001843009F045
:104A500091C28091E4029091E502891B91E01816C1
:104A60000CF090E0881F8827881F981B69ED71E083
:104A700031F060ED71E0913011F46EED71E08EE097
:104A80000E942D138091590790915A070196909397
:104A90005A0780935907EEEFF2E0A0E080E098E03B
:104AA00000800EBCA111012C019780FDFDCF019269
:104AB000B9F70DB488CA01E023E04BEB54E1642D53
:104AC000852D0E94030F23E04CEB54E1642D8E856D
:104AD0000E94030F23E04EEB54E1B1E1B40DBA871D
:104AE0006B2F852D0E94030F23E04FEB54E16A8565
:104AF0008E850E94030FBBCE6B2D892D0E94A013C3
:104B000081CF80E00E945B160E942F178091EA02FD
:104B10000091EB020F5F3AE0839F000D112421E02A
:104B200043E551E06DE089E40E94F40FE02EF12CA2
:104B30006AE070E0C7010E94A81421E0AC016DE0BA
:104B40008FE40E94F40F802F0E944616882309F4F8
:104B50005CC0098321E041E065E3CE0101960E943B
:104B60002515EE0CFF1CF701E151FC4E8591949147
:104B70000E94911421E0AC0167E185E30E94F40FEB
:104B8000F701ED5DFC4E859194910E949114C12C2A
:104B9000D12CE3E0BE2EDC014D917D01442309F4CC
:104BA00053CF9D01403231F04A30E9F4E6E0CE0EB9
:104BB00017C09F01F9014191542F5F7D11F04A30D8
:104BC000C1F7281B390B220F331F220F331F2D0D66
:104BD000311DD394D3942C3431051CF0B6E0CB0EA8
:104BE000D12CC701D8CF4052FB2D4F02A001112478
:104BF0004C57534E01E023E061E26C0D85E38D0DCF
:104C00000E94030F04E0D00EECCF61E085E30E9428
:104C1000A01321E045E551E067E185E30E94F40F30
:104C200021E04EE551E061E285E30E94F40F098343
:104C3000CE0101960E94D6146AE070E00E94A8148A
:104C400021E0AC0161E28FE5FDCE88E10E945B16B8
:104C50008091EA020091EB020F5F2AE0829F000D33
:104C60001124802F0E944616E02EF12C882309F48F
:104C70005FC0098321E04AE06DE4CE0101960E9405
:104C80002515F701EE0FFF1FE151FC4E8591949120
:104C90000E94911421E0AC0161E28DE40E94400F7A
:104CA00021E043E551E061E08DE40E94F40F6AE009
:104CB00070E0C7010E94A81421E0AC0161E083E527
:104CC0000E94F40F00E04AEEE42E42E0F42E209120
:104CD000F602C7018A5E92402817190609F00CF403
:104CE000B3CED70112968C918823E9F020E042E1FF
:104CF000602F81E00E94101320E044E1602F83E1E7
:104D00000E94700F20E044E1602F80E00E94700F4D
:104D1000F7018281898321E041E0400F61E0CE010B
:104D200001960E942515FFEFEF1AFF0A045FCFCF0F
:104D30006AE08DE40E94A013B3CF21E046E651E083
:104D400061E081E00E94F40F21E040E86AE080E049
:104D50000E9410138091F70221E0813009F062C0B7
:104D60004EE651E061E080E30E94F40F21E047E766
:104D700051E069E183E10E94F40F8091FC02898394
:104D800021E04CE06FE4CE0101960E94251521E060
:104D900043E551E069E183E60E94F40F8091FC0253
:104DA0006AE070E090E00E94A81421E0AC0169E1A3
:104DB00089E60E94F40F21E041E851E062E283E1DC
:104DC0000E94F40F6AE070E08091F8029091F9027D
:104DD0000E94A81421E0AC0162E285E50E94F40F74
:104DE0008091FA029091FB02892B09F4C1C021E065
:104DF0004DE851E06CE083E60E94400F21E04BE972
:104E000051E06BE281E00E94F40F6AE070E0809173
:104E1000FA029091FB020E94A81421E0AC016BE21F
:104E200085E510CE8F3FF1F54AEA51E061E080E37D
:104E30000E94F40F21E042EB51E069E18DE00E9415
:104E4000F40F8091FD02898321E04CE06FE4CE01F4
:104E500001960E94251521E043E551E069E183E6D2
:104E60000E94F40F8091FD026AE070E090E00E94E1
:104E7000A81421E0AC0169E189E60E94F40F21E069
:104E800041E851E062E283E10E94F40F6AE070E0E1
:104E90008091F8029091F9020E94A81421E0AC01DF
:104EA00062E2BECF4DEB51E061E080E3E6CF0E94CD
:104EB0002F1721E043EC51E061E081E00E94F40F04
:104EC00021E040E869E080E00E9410130E944E1744
:104ED0006C010BE0F12CE12CF6010E2C02C0F695D2
:104EE000E7950A94E2F7E370FF27C701880F991F3F
:104EF000E80FF91FEE0FFF1FED50FD4E85919491C5
:104F00000E94911421E0AC01602F81E00E94F40F17
:104F100022E0E20EF11C075F0134F1F68FE7E82E84
:104F200082E1F82E9BE0D92E01E02DE1A7016D2D45
:104F300082E60E94030F38E0D30E4DE1E40EF11C2F
:104F40005BE2D512F1CF80CDD50117964C92BFEF21
:104F5000AB1ABB0AEFEEF2E0EA15FB0509F0C1CA95
:104F600022CA803109F08ECD67EF71E086E188CDED
:104F70008091000166EE71E08C30C1F38E3089F7CC
:104F80006DEE71E088E27CCD8F929F92AF92BF92DE
:104F9000CF92DF92EF92FF92CF93DF93EC01688183
:104FA00079818A819B81611571058105910521F4C3
:104FB00064E279ED8BE597E02DE133EF41E050E0DD
:104FC0000E947E2849015A019B01AC01A7EAB1E485
:104FD0000E949D286B017C01ACEEB4EFA501940109
:104FE0000E94AB28C60ED71EE81EF91EF7FE06C0AB
:104FF00081E0C81AD108E10880E8F80AC882D9829D
:10500000EA82FB82C701B6019F77DF91CF91FF90C3
:10501000EF90DF90CF90BF90AF909F908F900895CA
:105020008F929F92AF92BF92CF92DF92EF92FF92B8
:1050300060910D0170910E0180910F01909110010E
:10504000611571058105910521F464E279ED8BE527
:1050500097E02DE133EF41E050E00E947E284901C6
:105060005A019B01AC01A7EAB1E40E949D286B01A3
:105070007C01ACEEB4EFA50194010E94AB28C60EF2
:10508000D71EE81EF91EF7FE06C081E0C81AD10837
:10509000E10880E8F80AC0920D01D0920E01E0927A
:1050A0000F01F0921001C701B6019F77FF90EF90BA
:1050B000DF90CF90BF90AF909F908F9008956093B6
:1050C0000D0170930E0180930F01909310010895CC
:1050D000F999FECF92BD81BDF89A992780B50895C0
:1050E000262FF999FECF1FBA92BD81BD20BD0FB604
:1050F000F894FA9AF99A0FBE01960895052E97FB37
:105100001EF400940E94952857FD07D00E94B028F5
:1051100007FC03D04EF40C9495285095409530959B
:1051200021953F4F4F4F5F4F089590958095709513
:1051300061957F4F8F4F9F4F08950E94D228A59F62
:10514000900DB49F900DA49F800D911D1124089582
:10515000B7FF0C949D280E949D28821B930B0895F5
:10516000A1E21A2EAA1BBB1BFD010DC0AA1FBB1F6B
:10517000EE1FFF1FA217B307E407F50720F0A21BDD
:10518000B30BE40BF50B661F771F881F991F1A944A
:1051900069F760957095809590959B01AC01BD0174
:1051A000CF010895A29FB001B39FC001A39F700DCE
:1051B000811D1124911DB29F700D811D1124911D1F
:1051C0000895991B79E004C0991F961708F0961B63
:1051D000881F7A95C9F780950895AA1BBB1B51E1DA
:1051E00007C0AA1FBB1FA617B70710F0A61BB70B57
:1051F000881F991F5A95A9F780959095BC01CD01FC
:10520000089597FB072E16F4009407D077FD09D078
:105210000E94ED2807FC05D03EF4909581959F4FA4
:105220000895709561957F4F0895EE0FFF1F0590CB
:0A523000F491E02D0994F894FFCFEB
:10523A0014FFFFFFFF00E100000000000001000072
:10524A000000C1808100000000000000C9106D123A
:10525A00EA10DF103011EE100C110000000090145B
:10526A00506C61793A2000436F6C6C656374696FA6
:10527A006E00517565656E206F66204361726473B6
:10528A00003C0023003F3F3F3F3F3F3F3F00576FF7
:10529A00727468202400526573756C743A005669FA
:1052AA0063746F727921004361726420776F6E3A7A
:1052BA000020205061796F75743A202400414C52C5
:1052CA00454144590A4F574E4544004F776E65642D
:1052DA0020426F6E75733A202400446566656174D6
:1052EA00210043617264206C6F73743A00447261E6
:1052FA007721004163746976652052756C65730085
:10530A00596F75204C6F7365004472617700596F4D
:10531A00752057696E0052656164793F004275795C
:10532A0020636172643F004E65772072756C652058
:10533A00666F7220243530303F0058204C65616713
:0E534A0075650046444342415358595A7F004E
:00000001FF
